:100000000C9434000C943E000C943E000C943E0082
:100010000C943E000C943E000C943E000C943E0068
:100020000C943E000C943E000C943E000C943E0058
:100030000C943E000C943E000C943E000C943E0048
:100040000C943E000C943E000C943E000C943E0038
:100050000C943E000C943E000C943E000C943E0028
:100060000C943E000C943E0011241FBECFEFD8E04C
:10007000DEBFCDBF0E9450000C9476000C940000AF
:10008000569A089584B5826084BD84B5816084BD2C
:1000900085B5836085BD84B5806884BD16BC089530
:1000A0000E9442000E94400024E692E388EC27BDB3
:1000B0003FEF43ED50E3315040405040E1F700C086
:1000C000000097BD3FEF43ED50E3315040405040BA
:1000D000E1F700C0000087BD3FEF43ED50E3315032
:1000E00040405040E1F700C00000E1CFF894FFCF5E
:00000001FF
